{
    "_format": "hh-sol-artifact-1",
    "contractName": "Realium",
    "sourceName": "contracts/RealiumTokens.sol",
    "abi": [
        {
            "inputs": [
                {
                    "internalType": "string",
                    "name": "parcelNum",
                    "type": "string"
                }
            ],
            "stateMutability": "nonpayable",
            "type": "constructor"
        },
        {
            "anonymous": false,
            "inputs": [
                {
                    "indexed": true,
                    "internalType": "address",
                    "name": "owner",
                    "type": "address"
                },
                {
                    "indexed": true,
                    "internalType": "address",
                    "name": "approved",
                    "type": "address"
                },
                {
                    "indexed": true,
                    "internalType": "uint256",
                    "name": "tokenId",
                    "type": "uint256"
                }
            ],
            "name": "Approval",
            "type": "event"
        },
        {
            "anonymous": false,
            "inputs": [
                {
                    "indexed": true,
                    "internalType": "address",
                    "name": "owner",
                    "type": "address"
                },
                {
                    "indexed": true,
                    "internalType": "address",
                    "name": "operator",
                    "type": "address"
                },
                {
                    "indexed": false,
                    "internalType": "bool",
                    "name": "approved",
                    "type": "bool"
                }
            ],
            "name": "ApprovalForAll",
            "type": "event"
        },
        {
            "anonymous": false,
            "inputs": [
                {
                    "indexed": true,
                    "internalType": "address",
                    "name": "owner",
                    "type": "address"
                },
                {
                    "indexed": false,
                    "internalType": "uint256",
                    "name": "price",
                    "type": "uint256"
                },
                {
                    "indexed": false,
                    "internalType": "bool",
                    "name": "listed",
                    "type": "bool"
                }
            ],
            "name": "Listed",
            "type": "event"
        },
        {
            "anonymous": false,
            "inputs": [
                {
                    "indexed": false,
                    "internalType": "address",
                    "name": "seller",
                    "type": "address"
                },
                {
                    "indexed": false,
                    "internalType": "address",
                    "name": "buyer",
                    "type": "address"
                },
                {
                    "indexed": false,
                    "internalType": "uint256",
                    "name": "price",
                    "type": "uint256"
                }
            ],
            "name": "Sale",
            "type": "event"
        },
        {
            "anonymous": false,
            "inputs": [
                {
                    "indexed": true,
                    "internalType": "address",
                    "name": "from",
                    "type": "address"
                },
                {
                    "indexed": true,
                    "internalType": "address",
                    "name": "to",
                    "type": "address"
                },
                {
                    "indexed": true,
                    "internalType": "uint256",
                    "name": "tokenId",
                    "type": "uint256"
                }
            ],
            "name": "Transfer",
            "type": "event"
        },
        {
            "anonymous": false,
            "inputs": [
                {
                    "indexed": true,
                    "internalType": "address",
                    "name": "owner",
                    "type": "address"
                },
                {
                    "indexed": false,
                    "internalType": "uint256",
                    "name": "previousPrice",
                    "type": "uint256"
                },
                {
                    "indexed": false,
                    "internalType": "bool",
                    "name": "listed",
                    "type": "bool"
                }
            ],
            "name": "Unlisted",
            "type": "event"
        },
        {
            "inputs": [
                {
                    "internalType": "uint256",
                    "name": "",
                    "type": "uint256"
                }
            ],
            "name": "_propertyExists",
            "outputs": [
                {
                    "internalType": "bool",
                    "name": "",
                    "type": "bool"
                }
            ],
            "stateMutability": "view",
            "type": "function"
        },
        {
            "inputs": [
                {
                    "internalType": "address",
                    "name": "to",
                    "type": "address"
                },
                {
                    "internalType": "uint256",
                    "name": "tokenId",
                    "type": "uint256"
                }
            ],
            "name": "approve",
            "outputs": [],
            "stateMutability": "nonpayable",
            "type": "function"
        },
        {
            "inputs": [
                {
                    "internalType": "address",
                    "name": "owner",
                    "type": "address"
                }
            ],
            "name": "balanceOf",
            "outputs": [
                {
                    "internalType": "uint256",
                    "name": "",
                    "type": "uint256"
                }
            ],
            "stateMutability": "view",
            "type": "function"
        },
        {
            "inputs": [
                {
                    "internalType": "uint256",
                    "name": "_tokenId",
                    "type": "uint256"
                }
            ],
            "name": "buyPropertyToken",
            "outputs": [],
            "stateMutability": "payable",
            "type": "function"
        },
        {
            "inputs": [
                {
                    "internalType": "string",
                    "name": "_name",
                    "type": "string"
                }
            ],
            "name": "createPropertyToken",
            "outputs": [],
            "stateMutability": "nonpayable",
            "type": "function"
        },
        {
            "inputs": [
                {
                    "internalType": "uint256",
                    "name": "tokenId",
                    "type": "uint256"
                }
            ],
            "name": "getApproved",
            "outputs": [
                {
                    "internalType": "address",
                    "name": "",
                    "type": "address"
                }
            ],
            "stateMutability": "view",
            "type": "function"
        },
        {
            "inputs": [],
            "name": "getParcelNumber",
            "outputs": [
                {
                    "internalType": "string",
                    "name": "",
                    "type": "string"
                }
            ],
            "stateMutability": "view",
            "type": "function"
        },
        {
            "inputs": [],
            "name": "getProperties",
            "outputs": [
                {
                    "components": [
                        {
                            "internalType": "string",
                            "name": "parcelNumber",
                            "type": "string"
                        },
                        {
                            "internalType": "bool",
                            "name": "listed",
                            "type": "bool"
                        },
                        {
                            "internalType": "uint256",
                            "name": "tokenId",
                            "type": "uint256"
                        },
                        {
                            "internalType": "uint256",
                            "name": "price",
                            "type": "uint256"
                        },
                        {
                            "internalType": "bool",
                            "name": "offer",
                            "type": "bool"
                        },
                        {
                            "internalType": "address",
                            "name": "owner",
                            "type": "address"
                        }
                    ],
                    "internalType": "struct Realium.Property[]",
                    "name": "",
                    "type": "tuple[]"
                }
            ],
            "stateMutability": "view",
            "type": "function"
        },
        {
            "inputs": [
                {
                    "internalType": "address",
                    "name": "owner",
                    "type": "address"
                },
                {
                    "internalType": "address",
                    "name": "operator",
                    "type": "address"
                }
            ],
            "name": "isApprovedForAll",
            "outputs": [
                {
                    "internalType": "bool",
                    "name": "",
                    "type": "bool"
                }
            ],
            "stateMutability": "view",
            "type": "function"
        },
        {
            "inputs": [
                {
                    "internalType": "uint256",
                    "name": "_tokenId",
                    "type": "uint256"
                },
                {
                    "internalType": "uint256",
                    "name": "_price",
                    "type": "uint256"
                }
            ],
            "name": "listProperty",
            "outputs": [],
            "stateMutability": "nonpayable",
            "type": "function"
        },
        {
            "inputs": [
                {
                    "internalType": "uint256",
                    "name": "_tokenId",
                    "type": "uint256"
                }
            ],
            "name": "lookUpTokenIdToPropertyToken",
            "outputs": [
                {
                    "components": [
                        {
                            "internalType": "string",
                            "name": "parcelNumber",
                            "type": "string"
                        },
                        {
                            "internalType": "bool",
                            "name": "listed",
                            "type": "bool"
                        },
                        {
                            "internalType": "uint256",
                            "name": "tokenId",
                            "type": "uint256"
                        },
                        {
                            "internalType": "uint256",
                            "name": "price",
                            "type": "uint256"
                        },
                        {
                            "internalType": "bool",
                            "name": "offer",
                            "type": "bool"
                        },
                        {
                            "internalType": "address",
                            "name": "owner",
                            "type": "address"
                        }
                    ],
                    "internalType": "struct Realium.Property",
                    "name": "",
                    "type": "tuple"
                }
            ],
            "stateMutability": "view",
            "type": "function"
        },
        {
            "inputs": [],
            "name": "name",
            "outputs": [
                {
                    "internalType": "string",
                    "name": "",
                    "type": "string"
                }
            ],
            "stateMutability": "view",
            "type": "function"
        },
        {
            "inputs": [],
            "name": "name_",
            "outputs": [
                {
                    "internalType": "string",
                    "name": "",
                    "type": "string"
                }
            ],
            "stateMutability": "view",
            "type": "function"
        },
        {
            "inputs": [
                {
                    "internalType": "uint256",
                    "name": "tokenId",
                    "type": "uint256"
                }
            ],
            "name": "ownerOf",
            "outputs": [
                {
                    "internalType": "address",
                    "name": "",
                    "type": "address"
                }
            ],
            "stateMutability": "view",
            "type": "function"
        },
        {
            "inputs": [
                {
                    "internalType": "uint256",
                    "name": "",
                    "type": "uint256"
                }
            ],
            "name": "properties",
            "outputs": [
                {
                    "internalType": "string",
                    "name": "parcelNumber",
                    "type": "string"
                },
                {
                    "internalType": "bool",
                    "name": "listed",
                    "type": "bool"
                },
                {
                    "internalType": "uint256",
                    "name": "tokenId",
                    "type": "uint256"
                },
                {
                    "internalType": "uint256",
                    "name": "price",
                    "type": "uint256"
                },
                {
                    "internalType": "bool",
                    "name": "offer",
                    "type": "bool"
                },
                {
                    "internalType": "address",
                    "name": "owner",
                    "type": "address"
                }
            ],
            "stateMutability": "view",
            "type": "function"
        },
        {
            "inputs": [
                {
                    "internalType": "uint256",
                    "name": "",
                    "type": "uint256"
                }
            ],
            "name": "propertiesForSale",
            "outputs": [
                {
                    "internalType": "uint256",
                    "name": "",
                    "type": "uint256"
                }
            ],
            "stateMutability": "view",
            "type": "function"
        },
        {
            "inputs": [
                {
                    "internalType": "address",
                    "name": "from",
                    "type": "address"
                },
                {
                    "internalType": "address",
                    "name": "to",
                    "type": "address"
                },
                {
                    "internalType": "uint256",
                    "name": "tokenId",
                    "type": "uint256"
                }
            ],
            "name": "safeTransferFrom",
            "outputs": [],
            "stateMutability": "nonpayable",
            "type": "function"
        },
        {
            "inputs": [
                {
                    "internalType": "address",
                    "name": "from",
                    "type": "address"
                },
                {
                    "internalType": "address",
                    "name": "to",
                    "type": "address"
                },
                {
                    "internalType": "uint256",
                    "name": "tokenId",
                    "type": "uint256"
                },
                {
                    "internalType": "bytes",
                    "name": "_data",
                    "type": "bytes"
                }
            ],
            "name": "safeTransferFrom",
            "outputs": [],
            "stateMutability": "nonpayable",
            "type": "function"
        },
        {
            "inputs": [
                {
                    "internalType": "address",
                    "name": "_payee",
                    "type": "address"
                },
                {
                    "internalType": "uint256",
                    "name": "_amount",
                    "type": "uint256"
                }
            ],
            "name": "sendTo",
            "outputs": [],
            "stateMutability": "nonpayable",
            "type": "function"
        },
        {
            "inputs": [
                {
                    "internalType": "address",
                    "name": "operator",
                    "type": "address"
                },
                {
                    "internalType": "bool",
                    "name": "approved",
                    "type": "bool"
                }
            ],
            "name": "setApprovalForAll",
            "outputs": [],
            "stateMutability": "nonpayable",
            "type": "function"
        },
        {
            "inputs": [
                {
                    "internalType": "bytes4",
                    "name": "interfaceId",
                    "type": "bytes4"
                }
            ],
            "name": "supportsInterface",
            "outputs": [
                {
                    "internalType": "bool",
                    "name": "",
                    "type": "bool"
                }
            ],
            "stateMutability": "view",
            "type": "function"
        },
        {
            "inputs": [],
            "name": "symbol",
            "outputs": [
                {
                    "internalType": "string",
                    "name": "",
                    "type": "string"
                }
            ],
            "stateMutability": "view",
            "type": "function"
        },
        {
            "inputs": [],
            "name": "symbol_",
            "outputs": [
                {
                    "internalType": "string",
                    "name": "",
                    "type": "string"
                }
            ],
            "stateMutability": "view",
            "type": "function"
        },
        {
            "inputs": [
                {
                    "internalType": "uint256",
                    "name": "",
                    "type": "uint256"
                }
            ],
            "name": "tokenIdToPropertyInfo",
            "outputs": [
                {
                    "internalType": "string",
                    "name": "parcelNumber",
                    "type": "string"
                },
                {
                    "internalType": "bool",
                    "name": "listed",
                    "type": "bool"
                },
                {
                    "internalType": "uint256",
                    "name": "tokenId",
                    "type": "uint256"
                },
                {
                    "internalType": "uint256",
                    "name": "price",
                    "type": "uint256"
                },
                {
                    "internalType": "bool",
                    "name": "offer",
                    "type": "bool"
                },
                {
                    "internalType": "address",
                    "name": "owner",
                    "type": "address"
                }
            ],
            "stateMutability": "view",
            "type": "function"
        },
        {
            "inputs": [
                {
                    "internalType": "uint256",
                    "name": "tokenId",
                    "type": "uint256"
                }
            ],
            "name": "tokenURI",
            "outputs": [
                {
                    "internalType": "string",
                    "name": "",
                    "type": "string"
                }
            ],
            "stateMutability": "view",
            "type": "function"
        },
        {
            "inputs": [
                {
                    "internalType": "address",
                    "name": "from",
                    "type": "address"
                },
                {
                    "internalType": "address",
                    "name": "to",
                    "type": "address"
                },
                {
                    "internalType": "uint256",
                    "name": "tokenId",
                    "type": "uint256"
                }
            ],
            "name": "transferFrom",
            "outputs": [],
            "stateMutability": "nonpayable",
            "type": "function"
        },
        {
            "inputs": [
                {
                    "internalType": "uint256",
                    "name": "_tokenId",
                    "type": "uint256"
                }
            ],
            "name": "unlistProperty",
            "outputs": [],
            "stateMutability": "nonpayable",
            "type": "function"
        }
    ],
    "bytecode": "0x60806040526040518060400160405280601081526020017f5265616c69756d2050726f70657274790000000000000000000000000000000081525060079080519060200190620000519291906200038f565b506040518060400160405280600381526020017f524c4d0000000000000000000000000000000000000000000000000000000000815250600890805190602001906200009f9291906200038f565b50348015620000ad57600080fd5b5060405162004a1438038062004a148339818101604052810190620000d39190620004b1565b60078054620000e29062000593565b80601f0160208091040260200160405190810160405280929190818152602001828054620001109062000593565b8015620001615780601f10620001355761010080835404028352916020019162000161565b820191906000526020600020905b8154815290600101906020018083116200014357829003601f168201915b505050505060088054620001759062000593565b80601f0160208091040260200160405190810160405280929190818152602001828054620001a39062000593565b8015620001f45780601f10620001c857610100808354040283529160200191620001f4565b820191906000526020600020905b815481529060010190602001808311620001d657829003601f168201915b50505050508160009080519060200190620002119291906200038f565b5080600190805190602001906200022a9291906200038f565b50505060066040518060c001604052806040518060200160405280600081525081526020016000151581526020016000815260200160008152602001600015158152602001600073ffffffffffffffffffffffffffffffffffffffff1681525090806001815401808255809150506001900390600052602060002090600502016000909190919091506000820151816000019080519060200190620002d19291906200038f565b5060208201518160010160006101000a81548160ff021916908315150217905550604082015181600201556060820151816003015560808201518160040160006101000a81548160ff02191690831515021790555060a08201518160040160016101000a81548173ffffffffffffffffffffffffffffffffffffffff021916908373ffffffffffffffffffffffffffffffffffffffff16021790555050508060099080519060200190620003879291906200038f565b505062000627565b8280546200039d9062000593565b90600052602060002090601f016020900481019282620003c157600085556200040d565b82601f10620003dc57805160ff19168380011785556200040d565b828001600101855582156200040d579182015b828111156200040c578251825591602001919060010190620003ef565b5b5090506200041c919062000420565b5090565b5b808211156200043b57600081600090555060010162000421565b5090565b60006200045662000450846200052a565b620004f6565b9050828152602081018484840111156200046f57600080fd5b6200047c8482856200055d565b509392505050565b600082601f8301126200049657600080fd5b8151620004a88482602086016200043f565b91505092915050565b600060208284031215620004c457600080fd5b600082015167ffffffffffffffff811115620004df57600080fd5b620004ed8482850162000484565b91505092915050565b6000604051905081810181811067ffffffffffffffff8211171562000520576200051f620005f8565b5b8060405250919050565b600067ffffffffffffffff821115620005485762000547620005f8565b5b601f19601f8301169050602081019050919050565b60005b838110156200057d57808201518184015260208101905062000560565b838111156200058d576000848401525b50505050565b60006002820490506001821680620005ac57607f821691505b60208210811415620005c357620005c2620005c9565b5b50919050565b7f4e487b7100000000000000000000000000000000000000000000000000000000600052602260045260246000fd5b7f4e487b7100000000000000000000000000000000000000000000000000000000600052604160045260246000fd5b6143dd80620006376000396000f3fe60806040526004361061019c5760003560e01c806370a08231116100ec578063bd8c7c8e1161008a578063e2b9e18611610064578063e2b9e18614610604578063e985e9c51461062f578063ec0cfd0b1461066c578063f7b10808146106975761019c565b8063bd8c7c8e14610561578063bdb698651461059e578063c87b56dd146105c75761019c565b80639e1a00aa116100c65780639e1a00aa146104bb578063a22cb465146104e4578063af17dea61461050d578063b88d4fde146105385761019c565b806370a082311461042a578063841ad8b91461046757806395d89b41146104905761019c565b8063375deff0116101595780634eda529b116101335780634eda529b1461036b57806360ed1d7a146103945780636352211e146103b05780636af562e8146103ed5761019c565b8063375deff0146102d557806342842e0e14610317578063482ce07f146103405761019c565b806301ffc9a7146101a157806306fdde03146101de578063081812fc14610209578063095ea7b31461024657806323b872dd1461026f57806329970c5a14610298575b600080fd5b3480156101ad57600080fd5b506101c860048036038101906101c39190612fd1565b6106d9565b6040516101d59190613bb8565b60405180910390f35b3480156101ea57600080fd5b506101f36107bb565b6040516102009190613bd3565b60405180910390f35b34801561021557600080fd5b50610230600480360381019061022b9190613064565b61084d565b60405161023d9190613af8565b60405180910390f35b34801561025257600080fd5b5061026d60048036038101906102689190612f95565b6108d2565b005b34801561027b57600080fd5b5061029660048036038101906102919190612e8f565b6109ea565b005b3480156102a457600080fd5b506102bf60048036038101906102ba9190613064565b610a4a565b6040516102cc9190613bb8565b60405180910390f35b3480156102e157600080fd5b506102fc60048036038101906102f79190613064565b610a6a565b60405161030e96959493929190613bf5565b60405180910390f35b34801561032357600080fd5b5061033e60048036038101906103399190612e8f565b610b68565b005b34801561034c57600080fd5b50610355610b88565b6040516103629190613bd3565b60405180910390f35b34801561037757600080fd5b50610392600480360381019061038d919061308d565b610c1a565b005b6103ae60048036038101906103a99190613064565b610e33565b005b3480156103bc57600080fd5b506103d760048036038101906103d29190613064565b61126a565b6040516103e49190613af8565b60405180910390f35b3480156103f957600080fd5b50610414600480360381019061040f9190613064565b61131c565b6040516104219190613eff565b60405180910390f35b34801561043657600080fd5b50610451600480360381019061044c9190612e2a565b611334565b60405161045e9190613eff565b60405180910390f35b34801561047357600080fd5b5061048e60048036038101906104899190613064565b6113ec565b005b34801561049c57600080fd5b506104a56115bc565b6040516104b29190613bd3565b60405180910390f35b3480156104c757600080fd5b506104e260048036038101906104dd9190612f95565b61164e565b005b3480156104f057600080fd5b5061050b60048036038101906105069190612f59565b611732565b005b34801561051957600080fd5b506105226118b3565b60405161052f9190613bd3565b60405180910390f35b34801561054457600080fd5b5061055f600480360381019061055a9190612ede565b6118ec565b005b34801561056d57600080fd5b5061058860048036038101906105839190613064565b61194e565b6040516105959190613edd565b60405180910390f35b3480156105aa57600080fd5b506105c560048036038101906105c09190613023565b611ae2565b005b3480156105d357600080fd5b506105ee60048036038101906105e99190613064565b611d73565b6040516105fb9190613bd3565b60405180910390f35b34801561061057600080fd5b50610619611e1a565b6040516106269190613bd3565b60405180910390f35b34801561063b57600080fd5b5061065660048036038101906106519190612e53565b611e53565b6040516106639190613bb8565b60405180910390f35b34801561067857600080fd5b50610681611ee7565b60405161068e9190613b96565b60405180910390f35b3480156106a357600080fd5b506106be60048036038101906106b99190613064565b612078565b6040516106d096959493929190613bf5565b60405180910390f35b60007f80ac58cd000000000000000000000000000000000000000000000000000000007bffffffffffffffffffffffffffffffffffffffffffffffffffffffff1916827bffffffffffffffffffffffffffffffffffffffffffffffffffffffff191614806107a457507f5b5e139f000000000000000000000000000000000000000000000000000000007bffffffffffffffffffffffffffffffffffffffffffffffffffffffff1916827bffffffffffffffffffffffffffffffffffffffffffffffffffffffff1916145b806107b457506107b382612186565b5b9050919050565b6060600080546107ca906141d2565b80601f01602080910402602001604051908101604052809291908181526020018280546107f6906141d2565b80156108435780601f1061081857610100808354040283529160200191610843565b820191906000526020600020905b81548152906001019060200180831161082657829003601f168201915b5050505050905090565b6000610858826121f0565b610897576040517f08c379a000000000000000000000000000000000000000000000000000000000815260040161088e90613ddd565b60405180910390fd5b6004600083815260200190815260200160002060009054906101000a900473ffffffffffffffffffffffffffffffffffffffff169050919050565b60006108dd8261126a565b90508073ffffffffffffffffffffffffffffffffffffffff168373ffffffffffffffffffffffffffffffffffffffff16141561094e576040517f08c379a000000000000000000000000000000000000000000000000000000000815260040161094590613e7d565b60405180910390fd5b8073ffffffffffffffffffffffffffffffffffffffff1661096d61225c565b73ffffffffffffffffffffffffffffffffffffffff16148061099c575061099b8161099661225c565b611e53565b5b6109db576040517f08c379a00000000000000000000000000000000000000000000000000000000081526004016109d290613d3d565b60405180910390fd5b6109e58383612264565b505050565b6109fb6109f561225c565b8261231d565b610a3a576040517f08c379a0000000000000000000000000000000000000000000000000000000008152600401610a3190613ebd565b60405180910390fd5b610a458383836123fb565b505050565b600c6020528060005260406000206000915054906101000a900460ff1681565b600a602052806000526040600020600091509050806000018054610a8d906141d2565b80601f0160208091040260200160405190810160405280929190818152602001828054610ab9906141d2565b8015610b065780601f10610adb57610100808354040283529160200191610b06565b820191906000526020600020905b815481529060010190602001808311610ae957829003601f168201915b5050505050908060010160009054906101000a900460ff16908060020154908060030154908060040160009054906101000a900460ff16908060040160019054906101000a900473ffffffffffffffffffffffffffffffffffffffff16905086565b610b83838383604051806020016040528060008152506118ec565b505050565b606060098054610b97906141d2565b80601f0160208091040260200160405190810160405280929190818152602001828054610bc3906141d2565b8015610c105780601f10610be557610100808354040283529160200191610c10565b820191906000526020600020905b815481529060010190602001808311610bf357829003601f168201915b5050505050905090565b3373ffffffffffffffffffffffffffffffffffffffff16610c3a8361126a565b73ffffffffffffffffffffffffffffffffffffffff1614610c90576040517f08c379a0000000000000000000000000000000000000000000000000000000008152600401610c8790613d9d565b60405180910390fd5b60008111610cd3576040517f08c379a0000000000000000000000000000000000000000000000000000000008152600401610cca90613e5d565b60405180910390fd5b600160068381548110610d0f577f4e487b7100000000000000000000000000000000000000000000000000000000600052603260045260246000fd5b906000526020600020906005020160010160006101000a81548160ff0219169083151502179055508060068381548110610d72577f4e487b7100000000000000000000000000000000000000000000000000000000600052603260045260246000fd5b9060005260206000209060050201600301819055503373ffffffffffffffffffffffffffffffffffffffff167f1d4ee6800fd1668b5c792da1da4af16dd38546281a1a58ed849f27d6f8f95dd18260068581548110610dfa577f4e487b7100000000000000000000000000000000000000000000000000000000600052603260045260246000fd5b906000526020600020906005020160010160009054906101000a900460ff16604051610e27929190613f1a565b60405180910390a25050565b600060068281548110610e6f577f4e487b7100000000000000000000000000000000000000000000000000000000600052603260045260246000fd5b90600052602060002090600502016040518060c0016040529081600082018054610e98906141d2565b80601f0160208091040260200160405190810160405280929190818152602001828054610ec4906141d2565b8015610f115780601f10610ee657610100808354040283529160200191610f11565b820191906000526020600020905b815481529060010190602001808311610ef457829003601f168201915b505050505081526020016001820160009054906101000a900460ff1615151515815260200160028201548152602001600382015481526020016004820160009054906101000a900460ff161515151581526020016004820160019054906101000a900473ffffffffffffffffffffffffffffffffffffffff1673ffffffffffffffffffffffffffffffffffffffff1673ffffffffffffffffffffffffffffffffffffffff16815250509050600073ffffffffffffffffffffffffffffffffffffffff163373ffffffffffffffffffffffffffffffffffffffff161415801561102557503073ffffffffffffffffffffffffffffffffffffffff163373ffffffffffffffffffffffffffffffffffffffff1614155b61102e57600080fd5b6000816060015111611075576040517f08c379a000000000000000000000000000000000000000000000000000000000815260040161106c90613d1d565b60405180910390fd5b6001151581602001511515146110c0576040517f08c379a00000000000000000000000000000000000000000000000000000000081526004016110b790613c9d565b60405180910390fd5b80606001513411611106576040517f08c379a00000000000000000000000000000000000000000000000000000000081526004016110fd90613dfd565b60405180910390fd5b60006111158260a00151612657565b90506111268260a001513385610b68565b61113481836060015161164e565b600060068481548110611170577f4e487b7100000000000000000000000000000000000000000000000000000000600052603260045260246000fd5b906000526020600020906005020160010160006101000a81548160ff02191690831515021790555033600684815481106111d3577f4e487b7100000000000000000000000000000000000000000000000000000000600052603260045260246000fd5b906000526020600020906005020160040160016101000a81548173ffffffffffffffffffffffffffffffffffffffff021916908373ffffffffffffffffffffffffffffffffffffffff1602179055507f3f3483d0995db4c081e0101ef6753bef457833c20605cd871de61dcb48085a9a8260a0015133846060015160405161125d93929190613b13565b60405180910390a1505050565b6000806002600084815260200190815260200160002060009054906101000a900473ffffffffffffffffffffffffffffffffffffffff169050600073ffffffffffffffffffffffffffffffffffffffff168173ffffffffffffffffffffffffffffffffffffffff161415611313576040517f08c379a000000000000000000000000000000000000000000000000000000000815260040161130a90613d7d565b60405180910390fd5b80915050919050565b600b6020528060005260406000206000915090505481565b60008073ffffffffffffffffffffffffffffffffffffffff168273ffffffffffffffffffffffffffffffffffffffff1614156113a5576040517f08c379a000000000000000000000000000000000000000000000000000000000815260040161139c90613d5d565b60405180910390fd5b600360008373ffffffffffffffffffffffffffffffffffffffff1673ffffffffffffffffffffffffffffffffffffffff168152602001908152602001600020549050919050565b3373ffffffffffffffffffffffffffffffffffffffff1661140c8261126a565b73ffffffffffffffffffffffffffffffffffffffff1614611462576040517f08c379a000000000000000000000000000000000000000000000000000000000815260040161145990613e9d565b60405180910390fd5b60006006828154811061149e577f4e487b7100000000000000000000000000000000000000000000000000000000600052603260045260246000fd5b906000526020600020906005020160010160006101000a81548160ff0219169083151502179055503373ffffffffffffffffffffffffffffffffffffffff167f1095670fd9f0d4567dec2eb74e783ddc4835ca3b3591a9a11149d8cfd0d4e4f660068381548110611538577f4e487b7100000000000000000000000000000000000000000000000000000000600052603260045260246000fd5b90600052602060002090600502016003015460068481548110611584577f4e487b7100000000000000000000000000000000000000000000000000000000600052603260045260246000fd5b906000526020600020906005020160010160009054906101000a900460ff166040516115b1929190613f1a565b60405180910390a250565b6060600180546115cb906141d2565b80601f01602080910402602001604051908101604052809291908181526020018280546115f7906141d2565b80156116445780601f1061161957610100808354040283529160200191611644565b820191906000526020600020905b81548152906001019060200180831161162757829003601f168201915b5050505050905090565b600073ffffffffffffffffffffffffffffffffffffffff168273ffffffffffffffffffffffffffffffffffffffff16141580156116b757503073ffffffffffffffffffffffffffffffffffffffff168273ffffffffffffffffffffffffffffffffffffffff1614155b6116c057600080fd5b6000811180156116d05750478111155b6116d957600080fd5b60006116e483612657565b90508073ffffffffffffffffffffffffffffffffffffffff166108fc839081150290604051600060405180830381858888f1935050505015801561172c573d6000803e3d6000fd5b50505050565b61173a61225c565b73ffffffffffffffffffffffffffffffffffffffff168273ffffffffffffffffffffffffffffffffffffffff1614156117a8576040517f08c379a000000000000000000000000000000000000000000000000000000000815260040161179f90613cdd565b60405180910390fd5b80600560006117b561225c565b73ffffffffffffffffffffffffffffffffffffffff1673ffffffffffffffffffffffffffffffffffffffff16815260200190815260200160002060008473ffffffffffffffffffffffffffffffffffffffff1673ffffffffffffffffffffffffffffffffffffffff16815260200190815260200160002060006101000a81548160ff0219169083151502179055508173ffffffffffffffffffffffffffffffffffffffff1661186261225c565b73ffffffffffffffffffffffffffffffffffffffff167f17307eab39ab6107e8899845ad3d59bd9653f200f220920489ca2b5937696c31836040516118a79190613bb8565b60405180910390a35050565b6040518060400160405280600381526020017f524c4d000000000000000000000000000000000000000000000000000000000081525081565b6118fd6118f761225c565b8361231d565b61193c576040517f08c379a000000000000000000000000000000000000000000000000000000000815260040161193390613ebd565b60405180910390fd5b61194884848484612661565b50505050565b611956612bfe565b60068281548110611990577f4e487b7100000000000000000000000000000000000000000000000000000000600052603260045260246000fd5b90600052602060002090600502016040518060c00160405290816000820180546119b9906141d2565b80601f01602080910402602001604051908101604052809291908181526020018280546119e5906141d2565b8015611a325780601f10611a0757610100808354040283529160200191611a32565b820191906000526020600020905b815481529060010190602001808311611a1557829003601f168201915b505050505081526020016001820160009054906101000a900460ff1615151515815260200160028201548152602001600382015481526020016004820160009054906101000a900460ff161515151581526020016004820160019054906101000a900473ffffffffffffffffffffffffffffffffffffffff1673ffffffffffffffffffffffffffffffffffffffff1673ffffffffffffffffffffffffffffffffffffffff16815250509050919050565b6000600680549050905060066040518060c00160405280848152602001600015158152602001838152602001600081526020016000151581526020013373ffffffffffffffffffffffffffffffffffffffff1681525090806001815401808255809150506001900390600052602060002090600502016000909190919091506000820151816000019080519060200190611b7d929190612c4e565b5060208201518160010160006101000a81548160ff021916908315150217905550604082015181600201556060820151816003015560808201518160040160006101000a81548160ff02191690831515021790555060a08201518160040160016101000a81548173ffffffffffffffffffffffffffffffffffffffff021916908373ffffffffffffffffffffffffffffffffffffffff160217905550505060006040518060c00160405280848152602001600015158152602001838152602001600081526020016000151581526020013373ffffffffffffffffffffffffffffffffffffffff16815250905080600a60008481526020019081526020016000206000820151816000019080519060200190611c99929190612c4e565b5060208201518160010160006101000a81548160ff021916908315150217905550604082015181600201556060820151816003015560808201518160040160006101000a81548160ff02191690831515021790555060a08201518160040160016101000a81548173ffffffffffffffffffffffffffffffffffffffff021916908373ffffffffffffffffffffffffffffffffffffffff160217905550905050611d4233836126bd565b6001600c600084815260200190815260200160002060006101000a81548160ff021916908315150217905550505050565b6060611d7e826121f0565b611dbd576040517f08c379a0000000000000000000000000000000000000000000000000000000008152600401611db490613e3d565b60405180910390fd5b6000611dc761288b565b90506000815111611de75760405180602001604052806000815250611e12565b80611df1846128a2565b604051602001611e02929190613ad4565b6040516020818303038152906040525b915050919050565b6040518060400160405280601081526020017f5265616c69756d2050726f70657274790000000000000000000000000000000081525081565b6000600560008473ffffffffffffffffffffffffffffffffffffffff1673ffffffffffffffffffffffffffffffffffffffff16815260200190815260200160002060008373ffffffffffffffffffffffffffffffffffffffff1673ffffffffffffffffffffffffffffffffffffffff16815260200190815260200160002060009054906101000a900460ff16905092915050565b60606006805480602002602001604051908101604052809291908181526020016000905b8282101561206f57838290600052602060002090600502016040518060c0016040529081600082018054611f3e906141d2565b80601f0160208091040260200160405190810160405280929190818152602001828054611f6a906141d2565b8015611fb75780601f10611f8c57610100808354040283529160200191611fb7565b820191906000526020600020905b815481529060010190602001808311611f9a57829003601f168201915b505050505081526020016001820160009054906101000a900460ff1615151515815260200160028201548152602001600382015481526020016004820160009054906101000a900460ff161515151581526020016004820160019054906101000a900473ffffffffffffffffffffffffffffffffffffffff1673ffffffffffffffffffffffffffffffffffffffff1673ffffffffffffffffffffffffffffffffffffffff168152505081526020019060010190611f0b565b50505050905090565b6006818154811061208857600080fd5b90600052602060002090600502016000915090508060000180546120ab906141d2565b80601f01602080910402602001604051908101604052809291908181526020018280546120d7906141d2565b80156121245780601f106120f957610100808354040283529160200191612124565b820191906000526020600020905b81548152906001019060200180831161210757829003601f168201915b5050505050908060010160009054906101000a900460ff16908060020154908060030154908060040160009054906101000a900460ff16908060040160019054906101000a900473ffffffffffffffffffffffffffffffffffffffff16905086565b60007f01ffc9a7000000000000000000000000000000000000000000000000000000007bffffffffffffffffffffffffffffffffffffffffffffffffffffffff1916827bffffffffffffffffffffffffffffffffffffffffffffffffffffffff1916149050919050565b60008073ffffffffffffffffffffffffffffffffffffffff166002600084815260200190815260200160002060009054906101000a900473ffffffffffffffffffffffffffffffffffffffff1673ffffffffffffffffffffffffffffffffffffffff1614159050919050565b600033905090565b816004600083815260200190815260200160002060006101000a81548173ffffffffffffffffffffffffffffffffffffffff021916908373ffffffffffffffffffffffffffffffffffffffff160217905550808273ffffffffffffffffffffffffffffffffffffffff166122d78361126a565b73ffffffffffffffffffffffffffffffffffffffff167f8c5be1e5ebec7d5bd14f71427d1e84f3dd0314c0f7b2291e5b200ac8c7c3b92560405160405180910390a45050565b6000612328826121f0565b612367576040517f08c379a000000000000000000000000000000000000000000000000000000000815260040161235e90613cfd565b60405180910390fd5b60006123728361126a565b90508073ffffffffffffffffffffffffffffffffffffffff168473ffffffffffffffffffffffffffffffffffffffff1614806123e157508373ffffffffffffffffffffffffffffffffffffffff166123c98461084d565b73ffffffffffffffffffffffffffffffffffffffff16145b806123f257506123f18185611e53565b5b91505092915050565b8273ffffffffffffffffffffffffffffffffffffffff1661241b8261126a565b73ffffffffffffffffffffffffffffffffffffffff1614612471576040517f08c379a000000000000000000000000000000000000000000000000000000000815260040161246890613e1d565b60405180910390fd5b600073ffffffffffffffffffffffffffffffffffffffff168273ffffffffffffffffffffffffffffffffffffffff1614156124e1576040517f08c379a00000000000000000000000000000000000000000000000000000000081526004016124d890613cbd565b60405180910390fd5b6124ec838383612a4f565b6124f7600082612264565b6001600360008573ffffffffffffffffffffffffffffffffffffffff1673ffffffffffffffffffffffffffffffffffffffff168152602001908152602001600020600082825461254791906140e8565b925050819055506001600360008473ffffffffffffffffffffffffffffffffffffffff1673ffffffffffffffffffffffffffffffffffffffff168152602001908152602001600020600082825461259e9190614061565b92505081905550816002600083815260200190815260200160002060006101000a81548173ffffffffffffffffffffffffffffffffffffffff021916908373ffffffffffffffffffffffffffffffffffffffff160217905550808273ffffffffffffffffffffffffffffffffffffffff168473ffffffffffffffffffffffffffffffffffffffff167fddf252ad1be2c89b69c2b068fc378daa952ba7f163c4a11628f55a4df523b3ef60405160405180910390a4505050565b6000819050919050565b61266c8484846123fb565b61267884848484612a54565b6126b7576040517f08c379a00000000000000000000000000000000000000000000000000000000081526004016126ae90613c5d565b60405180910390fd5b50505050565b600073ffffffffffffffffffffffffffffffffffffffff168273ffffffffffffffffffffffffffffffffffffffff16141561272d576040517f08c379a000000000000000000000000000000000000000000000000000000000815260040161272490613dbd565b60405180910390fd5b612736816121f0565b15612776576040517f08c379a000000000000000000000000000000000000000000000000000000000815260040161276d90613c7d565b60405180910390fd5b61278260008383612a4f565b6001600360008473ffffffffffffffffffffffffffffffffffffffff1673ffffffffffffffffffffffffffffffffffffffff16815260200190815260200160002060008282546127d29190614061565b92505081905550816002600083815260200190815260200160002060006101000a81548173ffffffffffffffffffffffffffffffffffffffff021916908373ffffffffffffffffffffffffffffffffffffffff160217905550808273ffffffffffffffffffffffffffffffffffffffff16600073ffffffffffffffffffffffffffffffffffffffff167fddf252ad1be2c89b69c2b068fc378daa952ba7f163c4a11628f55a4df523b3ef60405160405180910390a45050565b606060405180602001604052806000815250905090565b606060008214156128ea576040518060400160405280600181526020017f30000000000000000000000000000000000000000000000000000000000000008152509050612a4a565b600082905060005b6000821461291c57808061290590614204565b915050600a8261291591906140b7565b91506128f2565b60008167ffffffffffffffff81111561295e577f4e487b7100000000000000000000000000000000000000000000000000000000600052604160045260246000fd5b6040519080825280601f01601f1916602001820160405280156129905781602001600182028036833780820191505090505b5090505b60008514612a43576001826129a991906140e8565b9150600a856129b8919061424d565b60306129c49190614061565b60f81b818381518110612a00577f4e487b7100000000000000000000000000000000000000000000000000000000600052603260045260246000fd5b60200101907effffffffffffffffffffffffffffffffffffffffffffffffffffffffffffff1916908160001a905350600a85612a3c91906140b7565b9450612994565b8093505050505b919050565b505050565b6000612a758473ffffffffffffffffffffffffffffffffffffffff16612beb565b15612bde578373ffffffffffffffffffffffffffffffffffffffff1663150b7a02612a9e61225c565b8786866040518563ffffffff1660e01b8152600401612ac09493929190613b4a565b602060405180830381600087803b158015612ada57600080fd5b505af1925050508015612b0b57506040513d601f19601f82011682018060405250810190612b089190612ffa565b60015b612b8e573d8060008114612b3b576040519150601f19603f3d011682016040523d82523d6000602084013e612b40565b606091505b50600081511415612b86576040517f08c379a0000000000000000000000000000000000000000000000000000000008152600401612b7d90613c5d565b60405180910390fd5b805181602001fd5b63150b7a0260e01b7bffffffffffffffffffffffffffffffffffffffffffffffffffffffff1916817bffffffffffffffffffffffffffffffffffffffffffffffffffffffff191614915050612be3565b600190505b949350505050565b600080823b905060008111915050919050565b6040518060c00160405280606081526020016000151581526020016000815260200160008152602001600015158152602001600073ffffffffffffffffffffffffffffffffffffffff1681525090565b828054612c5a906141d2565b90600052602060002090601f016020900481019282612c7c5760008555612cc3565b82601f10612c9557805160ff1916838001178555612cc3565b82800160010185558215612cc3579182015b82811115612cc2578251825591602001919060010190612ca7565b5b509050612cd09190612cd4565b5090565b5b80821115612ced576000816000905550600101612cd5565b5090565b6000612d04612cff84613f74565b613f43565b905082815260208101848484011115612d1c57600080fd5b612d27848285614190565b509392505050565b6000612d42612d3d84613fa4565b613f43565b905082815260208101848484011115612d5a57600080fd5b612d65848285614190565b509392505050565b600081359050612d7c8161434b565b92915050565b600081359050612d9181614362565b92915050565b600081359050612da681614379565b92915050565b600081519050612dbb81614379565b92915050565b600082601f830112612dd257600080fd5b8135612de2848260208601612cf1565b91505092915050565b600082601f830112612dfc57600080fd5b8135612e0c848260208601612d2f565b91505092915050565b600081359050612e2481614390565b92915050565b600060208284031215612e3c57600080fd5b6000612e4a84828501612d6d565b91505092915050565b60008060408385031215612e6657600080fd5b6000612e7485828601612d6d565b9250506020612e8585828601612d6d565b9150509250929050565b600080600060608486031215612ea457600080fd5b6000612eb286828701612d6d565b9350506020612ec386828701612d6d565b9250506040612ed486828701612e15565b9150509250925092565b60008060008060808587031215612ef457600080fd5b6000612f0287828801612d6d565b9450506020612f1387828801612d6d565b9350506040612f2487828801612e15565b925050606085013567ffffffffffffffff811115612f4157600080fd5b612f4d87828801612dc1565b91505092959194509250565b60008060408385031215612f6c57600080fd5b6000612f7a85828601612d6d565b9250506020612f8b85828601612d82565b9150509250929050565b60008060408385031215612fa857600080fd5b6000612fb685828601612d6d565b9250506020612fc785828601612e15565b9150509250929050565b600060208284031215612fe357600080fd5b6000612ff184828501612d97565b91505092915050565b60006020828403121561300c57600080fd5b600061301a84828501612dac565b91505092915050565b60006020828403121561303557600080fd5b600082013567ffffffffffffffff81111561304f57600080fd5b61305b84828501612deb565b91505092915050565b60006020828403121561307657600080fd5b600061308484828501612e15565b91505092915050565b600080604083850312156130a057600080fd5b60006130ae85828601612e15565b92505060206130bf85828601612e15565b9150509250929050565b60006130d583836139a4565b905092915050565b6130e68161411c565b82525050565b6130f58161411c565b82525050565b600061310682613fe4565b6131108185614012565b93508360208202850161312285613fd4565b8060005b8581101561315e578484038952815161313f85826130c9565b945061314a83614005565b925060208a01995050600181019050613126565b50829750879550505050505092915050565b6131798161412e565b82525050565b6131888161412e565b82525050565b600061319982613fef565b6131a38185614023565b93506131b381856020860161419f565b6131bc8161433a565b840191505092915050565b60006131d282613ffa565b6131dc8185614034565b93506131ec81856020860161419f565b6131f58161433a565b840191505092915050565b600061320b82613ffa565b6132158185614045565b935061322581856020860161419f565b61322e8161433a565b840191505092915050565b600061324482613ffa565b61324e8185614056565b935061325e81856020860161419f565b80840191505092915050565b6000613277603283614045565b91507f4552433732313a207472616e7366657220746f206e6f6e20455243373231526560008301527f63656976657220696d706c656d656e74657200000000000000000000000000006020830152604082019050919050565b60006132dd601c83614045565b91507f4552433732313a20746f6b656e20616c7265616479206d696e746564000000006000830152602082019050919050565b600061331d602083614045565b91507f5468652070726f7065727479206d75737420626520757020666f722073616c656000830152602082019050919050565b600061335d602483614045565b91507f4552433732313a207472616e7366657220746f20746865207a65726f2061646460008301527f72657373000000000000000000000000000000000000000000000000000000006020830152604082019050919050565b60006133c3601983614045565b91507f4552433732313a20617070726f766520746f2063616c6c6572000000000000006000830152602082019050919050565b6000613403602c83614045565b91507f4552433732313a206f70657261746f7220717565727920666f72206e6f6e657860008301527f697374656e7420746f6b656e00000000000000000000000000000000000000006020830152604082019050919050565b6000613469602983614045565b91507f5468652070726f7065727479206d75737420626520736f6c6420666f72206d6f60008301527f7265207468616e203000000000000000000000000000000000000000000000006020830152604082019050919050565b60006134cf603883614045565b91507f4552433732313a20617070726f76652063616c6c6572206973206e6f74206f7760008301527f6e6572206e6f7220617070726f76656420666f7220616c6c00000000000000006020830152604082019050919050565b6000613535602a83614045565b91507f4552433732313a2062616c616e636520717565727920666f7220746865207a6560008301527f726f2061646472657373000000000000000000000000000000000000000000006020830152604082019050919050565b600061359b602983614045565b91507f4552433732313a206f776e657220717565727920666f72206e6f6e657869737460008301527f656e7420746f6b656e00000000000000000000000000000000000000000000006020830152604082019050919050565b6000613601602783614045565b91507f596f752063616e27742073656c6c20612070726f706572747920796f7520646f60008301527f6e2774206f776e000000000000000000000000000000000000000000000000006020830152604082019050919050565b6000613667602083614045565b91507f4552433732313a206d696e7420746f20746865207a65726f20616464726573736000830152602082019050919050565b60006136a7602c83614045565b91507f4552433732313a20617070726f76656420717565727920666f72206e6f6e657860008301527f697374656e7420746f6b656e00000000000000000000000000000000000000006020830152604082019050919050565b600061370d602483614045565b91507f56616c7565206d7573742062652067726561746572207468616e20746865207060008301527f72696365000000000000000000000000000000000000000000000000000000006020830152604082019050919050565b6000613773602983614045565b91507f4552433732313a207472616e73666572206f6620746f6b656e2074686174206960008301527f73206e6f74206f776e00000000000000000000000000000000000000000000006020830152604082019050919050565b60006137d9602f83614045565b91507f4552433732314d657461646174613a2055524920717565727920666f72206e6f60008301527f6e6578697374656e7420746f6b656e00000000000000000000000000000000006020830152604082019050919050565b600061383f601a83614045565b91507f5072696365206d757374206265207365742061626f766520302e0000000000006000830152602082019050919050565b600061387f602183614045565b91507f4552433732313a20617070726f76616c20746f2063757272656e74206f776e6560008301527f72000000000000000000000000000000000000000000000000000000000000006020830152604082019050919050565b60006138e5602a83614045565b91507f596f75206861766520746f206f776e207468652070726f706572747920746f2060008301527f756e6c6973742069742e000000000000000000000000000000000000000000006020830152604082019050919050565b600061394b603183614045565b91507f4552433732313a207472616e736665722063616c6c6572206973206e6f74206f60008301527f776e6572206e6f7220617070726f7665640000000000000000000000000000006020830152604082019050919050565b600060c08301600083015184820360008601526139c182826131c7565b91505060208301516139d66020860182613170565b5060408301516139e96040860182613ab6565b5060608301516139fc6060860182613ab6565b506080830151613a0f6080860182613170565b5060a0830151613a2260a08601826130dd565b508091505092915050565b600060c0830160008301518482036000860152613a4a82826131c7565b9150506020830151613a5f6020860182613170565b506040830151613a726040860182613ab6565b506060830151613a856060860182613ab6565b506080830151613a986080860182613170565b5060a0830151613aab60a08601826130dd565b508091505092915050565b613abf81614186565b82525050565b613ace81614186565b82525050565b6000613ae08285613239565b9150613aec8284613239565b91508190509392505050565b6000602082019050613b0d60008301846130ec565b92915050565b6000606082019050613b2860008301866130ec565b613b3560208301856130ec565b613b426040830184613ac5565b949350505050565b6000608082019050613b5f60008301876130ec565b613b6c60208301866130ec565b613b796040830185613ac5565b8181036060830152613b8b818461318e565b905095945050505050565b60006020820190508181036000830152613bb081846130fb565b905092915050565b6000602082019050613bcd600083018461317f565b92915050565b60006020820190508181036000830152613bed8184613200565b905092915050565b600060c0820190508181036000830152613c0f8189613200565b9050613c1e602083018861317f565b613c2b6040830187613ac5565b613c386060830186613ac5565b613c45608083018561317f565b613c5260a08301846130ec565b979650505050505050565b60006020820190508181036000830152613c768161326a565b9050919050565b60006020820190508181036000830152613c96816132d0565b9050919050565b60006020820190508181036000830152613cb681613310565b9050919050565b60006020820190508181036000830152613cd681613350565b9050919050565b60006020820190508181036000830152613cf6816133b6565b9050919050565b60006020820190508181036000830152613d16816133f6565b9050919050565b60006020820190508181036000830152613d368161345c565b9050919050565b60006020820190508181036000830152613d56816134c2565b9050919050565b60006020820190508181036000830152613d7681613528565b9050919050565b60006020820190508181036000830152613d968161358e565b9050919050565b60006020820190508181036000830152613db6816135f4565b9050919050565b60006020820190508181036000830152613dd68161365a565b9050919050565b60006020820190508181036000830152613df68161369a565b9050919050565b60006020820190508181036000830152613e1681613700565b9050919050565b60006020820190508181036000830152613e3681613766565b9050919050565b60006020820190508181036000830152613e56816137cc565b9050919050565b60006020820190508181036000830152613e7681613832565b9050919050565b60006020820190508181036000830152613e9681613872565b9050919050565b60006020820190508181036000830152613eb6816138d8565b9050919050565b60006020820190508181036000830152613ed68161393e565b9050919050565b60006020820190508181036000830152613ef78184613a2d565b905092915050565b6000602082019050613f146000830184613ac5565b92915050565b6000604082019050613f2f6000830185613ac5565b613f3c602083018461317f565b9392505050565b6000604051905081810181811067ffffffffffffffff82111715613f6a57613f6961430b565b5b8060405250919050565b600067ffffffffffffffff821115613f8f57613f8e61430b565b5b601f19601f8301169050602081019050919050565b600067ffffffffffffffff821115613fbf57613fbe61430b565b5b601f19601f8301169050602081019050919050565b6000819050602082019050919050565b600081519050919050565b600081519050919050565b600081519050919050565b6000602082019050919050565b600082825260208201905092915050565b600082825260208201905092915050565b600082825260208201905092915050565b600082825260208201905092915050565b600081905092915050565b600061406c82614186565b915061407783614186565b9250827fffffffffffffffffffffffffffffffffffffffffffffffffffffffffffffffff038211156140ac576140ab61427e565b5b828201905092915050565b60006140c282614186565b91506140cd83614186565b9250826140dd576140dc6142ad565b5b828204905092915050565b60006140f382614186565b91506140fe83614186565b9250828210156141115761411061427e565b5b828203905092915050565b600061412782614166565b9050919050565b60008115159050919050565b60007fffffffff0000000000000000000000000000000000000000000000000000000082169050919050565b600073ffffffffffffffffffffffffffffffffffffffff82169050919050565b6000819050919050565b82818337600083830152505050565b60005b838110156141bd5780820151818401526020810190506141a2565b838111156141cc576000848401525b50505050565b600060028204905060018216806141ea57607f821691505b602082108114156141fe576141fd6142dc565b5b50919050565b600061420f82614186565b91507fffffffffffffffffffffffffffffffffffffffffffffffffffffffffffffffff8214156142425761424161427e565b5b600182019050919050565b600061425882614186565b915061426383614186565b925082614273576142726142ad565b5b828206905092915050565b7f4e487b7100000000000000000000000000000000000000000000000000000000600052601160045260246000fd5b7f4e487b7100000000000000000000000000000000000000000000000000000000600052601260045260246000fd5b7f4e487b7100000000000000000000000000000000000000000000000000000000600052602260045260246000fd5b7f4e487b7100000000000000000000000000000000000000000000000000000000600052604160045260246000fd5b6000601f19601f8301169050919050565b6143548161411c565b811461435f57600080fd5b50565b61436b8161412e565b811461437657600080fd5b50565b6143828161413a565b811461438d57600080fd5b50565b61439981614186565b81146143a457600080fd5b5056fea2646970667358221220de032e215286abcd1df007927fc6e257592870215fecfbc72f9dcb6b99bf3c0564736f6c63430008000033",
    "linkReferences": {},
    "deployedLinkReferences": {}
}