{
    "_format": "hh-sol-artifact-1",
    "contractName": "RealiumToken",
    "sourceName": "contracts/RealiumERC20.sol",
    "abi": [
        {
            "inputs": [
                {
                    "internalType": "uint256",
                    "name": "initialSupply",
                    "type": "uint256"
                },
                {
                    "internalType": "string",
                    "name": "parcelNum",
                    "type": "string"
                }
            ],
            "stateMutability": "nonpayable",
            "type": "constructor"
        },
        {
            "anonymous": false,
            "inputs": [
                {
                    "indexed": true,
                    "internalType": "address",
                    "name": "owner",
                    "type": "address"
                },
                {
                    "indexed": true,
                    "internalType": "address",
                    "name": "spender",
                    "type": "address"
                },
                {
                    "indexed": false,
                    "internalType": "uint256",
                    "name": "value",
                    "type": "uint256"
                }
            ],
            "name": "Approval",
            "type": "event"
        },
        {
            "anonymous": false,
            "inputs": [
                {
                    "indexed": true,
                    "internalType": "address",
                    "name": "owner",
                    "type": "address"
                },
                {
                    "indexed": false,
                    "internalType": "uint256",
                    "name": "price",
                    "type": "uint256"
                },
                {
                    "indexed": false,
                    "internalType": "uint256",
                    "name": "numTokens",
                    "type": "uint256"
                }
            ],
            "name": "Listed",
            "type": "event"
        },
        {
            "anonymous": false,
            "inputs": [
                {
                    "indexed": false,
                    "internalType": "address",
                    "name": "seller",
                    "type": "address"
                },
                {
                    "indexed": false,
                    "internalType": "address",
                    "name": "buyer",
                    "type": "address"
                },
                {
                    "indexed": false,
                    "internalType": "uint256",
                    "name": "price",
                    "type": "uint256"
                },
                {
                    "indexed": false,
                    "internalType": "uint256",
                    "name": "numTokens",
                    "type": "uint256"
                }
            ],
            "name": "Sale",
            "type": "event"
        },
        {
            "anonymous": false,
            "inputs": [
                {
                    "indexed": true,
                    "internalType": "address",
                    "name": "from",
                    "type": "address"
                },
                {
                    "indexed": true,
                    "internalType": "address",
                    "name": "to",
                    "type": "address"
                },
                {
                    "indexed": false,
                    "internalType": "uint256",
                    "name": "value",
                    "type": "uint256"
                }
            ],
            "name": "Transfer",
            "type": "event"
        },
        {
            "anonymous": false,
            "inputs": [
                {
                    "indexed": true,
                    "internalType": "address",
                    "name": "owner",
                    "type": "address"
                },
                {
                    "indexed": false,
                    "internalType": "uint256",
                    "name": "previousPrice",
                    "type": "uint256"
                },
                {
                    "indexed": false,
                    "internalType": "uint256",
                    "name": "numTokens",
                    "type": "uint256"
                }
            ],
            "name": "Unlisted",
            "type": "event"
        },
        {
            "inputs": [
                {
                    "internalType": "uint256",
                    "name": "",
                    "type": "uint256"
                }
            ],
            "name": "addresses",
            "outputs": [
                {
                    "internalType": "address",
                    "name": "",
                    "type": "address"
                }
            ],
            "stateMutability": "view",
            "type": "function"
        },
        {
            "inputs": [
                {
                    "internalType": "uint256",
                    "name": "",
                    "type": "uint256"
                }
            ],
            "name": "allListings",
            "outputs": [
                {
                    "internalType": "address",
                    "name": "tokenSeller",
                    "type": "address"
                },
                {
                    "internalType": "uint256",
                    "name": "numTokens",
                    "type": "uint256"
                },
                {
                    "internalType": "uint256",
                    "name": "price",
                    "type": "uint256"
                }
            ],
            "stateMutability": "view",
            "type": "function"
        },
        {
            "inputs": [
                {
                    "internalType": "address",
                    "name": "owner",
                    "type": "address"
                },
                {
                    "internalType": "address",
                    "name": "spender",
                    "type": "address"
                }
            ],
            "name": "allowance",
            "outputs": [
                {
                    "internalType": "uint256",
                    "name": "",
                    "type": "uint256"
                }
            ],
            "stateMutability": "view",
            "type": "function"
        },
        {
            "inputs": [
                {
                    "internalType": "address",
                    "name": "spender",
                    "type": "address"
                },
                {
                    "internalType": "uint256",
                    "name": "amount",
                    "type": "uint256"
                }
            ],
            "name": "approve",
            "outputs": [
                {
                    "internalType": "bool",
                    "name": "",
                    "type": "bool"
                }
            ],
            "stateMutability": "nonpayable",
            "type": "function"
        },
        {
            "inputs": [
                {
                    "internalType": "address",
                    "name": "account",
                    "type": "address"
                }
            ],
            "name": "balanceOf",
            "outputs": [
                {
                    "internalType": "uint256",
                    "name": "",
                    "type": "uint256"
                }
            ],
            "stateMutability": "view",
            "type": "function"
        },
        {
            "inputs": [
                {
                    "internalType": "address",
                    "name": "_sellerAddress",
                    "type": "address"
                }
            ],
            "name": "buyPropertyToken",
            "outputs": [],
            "stateMutability": "payable",
            "type": "function"
        },
        {
            "inputs": [],
            "name": "decimals",
            "outputs": [
                {
                    "internalType": "uint8",
                    "name": "",
                    "type": "uint8"
                }
            ],
            "stateMutability": "view",
            "type": "function"
        },
        {
            "inputs": [
                {
                    "internalType": "address",
                    "name": "spender",
                    "type": "address"
                },
                {
                    "internalType": "uint256",
                    "name": "subtractedValue",
                    "type": "uint256"
                }
            ],
            "name": "decreaseAllowance",
            "outputs": [
                {
                    "internalType": "bool",
                    "name": "",
                    "type": "bool"
                }
            ],
            "stateMutability": "nonpayable",
            "type": "function"
        },
        {
            "inputs": [],
            "name": "getListings",
            "outputs": [
                {
                    "components": [
                        {
                            "internalType": "address",
                            "name": "tokenSeller",
                            "type": "address"
                        },
                        {
                            "internalType": "uint256",
                            "name": "numTokens",
                            "type": "uint256"
                        },
                        {
                            "internalType": "uint256",
                            "name": "price",
                            "type": "uint256"
                        }
                    ],
                    "internalType": "struct RealiumToken.Listing[]",
                    "name": "",
                    "type": "tuple[]"
                }
            ],
            "stateMutability": "view",
            "type": "function"
        },
        {
            "inputs": [],
            "name": "getParcelNumber",
            "outputs": [
                {
                    "internalType": "string",
                    "name": "",
                    "type": "string"
                }
            ],
            "stateMutability": "view",
            "type": "function"
        },
        {
            "inputs": [
                {
                    "internalType": "address",
                    "name": "spender",
                    "type": "address"
                },
                {
                    "internalType": "uint256",
                    "name": "addedValue",
                    "type": "uint256"
                }
            ],
            "name": "increaseAllowance",
            "outputs": [
                {
                    "internalType": "bool",
                    "name": "",
                    "type": "bool"
                }
            ],
            "stateMutability": "nonpayable",
            "type": "function"
        },
        {
            "inputs": [
                {
                    "internalType": "uint256",
                    "name": "_price",
                    "type": "uint256"
                },
                {
                    "internalType": "uint256",
                    "name": "_numTokens",
                    "type": "uint256"
                }
            ],
            "name": "listProperty",
            "outputs": [],
            "stateMutability": "nonpayable",
            "type": "function"
        },
        {
            "inputs": [
                {
                    "internalType": "address",
                    "name": "",
                    "type": "address"
                }
            ],
            "name": "listingNums",
            "outputs": [
                {
                    "internalType": "uint256",
                    "name": "",
                    "type": "uint256"
                }
            ],
            "stateMutability": "view",
            "type": "function"
        },
        {
            "inputs": [],
            "name": "name",
            "outputs": [
                {
                    "internalType": "string",
                    "name": "",
                    "type": "string"
                }
            ],
            "stateMutability": "view",
            "type": "function"
        },
        {
            "inputs": [
                {
                    "internalType": "address",
                    "name": "_payee",
                    "type": "address"
                },
                {
                    "internalType": "uint256",
                    "name": "_amount",
                    "type": "uint256"
                }
            ],
            "name": "sendTo",
            "outputs": [],
            "stateMutability": "nonpayable",
            "type": "function"
        },
        {
            "inputs": [],
            "name": "symbol",
            "outputs": [
                {
                    "internalType": "string",
                    "name": "",
                    "type": "string"
                }
            ],
            "stateMutability": "view",
            "type": "function"
        },
        {
            "inputs": [],
            "name": "totalSupply",
            "outputs": [
                {
                    "internalType": "uint256",
                    "name": "",
                    "type": "uint256"
                }
            ],
            "stateMutability": "view",
            "type": "function"
        },
        {
            "inputs": [
                {
                    "internalType": "address",
                    "name": "recipient",
                    "type": "address"
                },
                {
                    "internalType": "uint256",
                    "name": "amount",
                    "type": "uint256"
                }
            ],
            "name": "transfer",
            "outputs": [
                {
                    "internalType": "bool",
                    "name": "",
                    "type": "bool"
                }
            ],
            "stateMutability": "nonpayable",
            "type": "function"
        },
        {
            "inputs": [
                {
                    "internalType": "address",
                    "name": "sender",
                    "type": "address"
                },
                {
                    "internalType": "address",
                    "name": "recipient",
                    "type": "address"
                },
                {
                    "internalType": "uint256",
                    "name": "amount",
                    "type": "uint256"
                }
            ],
            "name": "transferFrom",
            "outputs": [
                {
                    "internalType": "bool",
                    "name": "",
                    "type": "bool"
                }
            ],
            "stateMutability": "nonpayable",
            "type": "function"
        },
        {
            "inputs": [],
            "name": "unlistProperty",
            "outputs": [],
            "stateMutability": "nonpayable",
            "type": "function"
        }
    ],
    "bytecode": "0x60806040523480156200001157600080fd5b50604051620031ca380380620031ca83398181016040528101906200003791906200075b565b6040518060400160405280601281526020017f5265616c69756d2050726f7065727479203100000000000000000000000000008152506040518060400160405280600381526020017f524c4d00000000000000000000000000000000000000000000000000000000008152508160039080519060200190620000bb92919062000622565b508060049080519060200190620000d492919062000622565b505050620000e93383620001ec60201b60201c565b80600a90805190602001906200010192919062000622565b50600760405180606001604052803373ffffffffffffffffffffffffffffffffffffffff168152602001600081526020016000815250908060018154018082558091505060019003906000526020600020906003020160009091909190915060008201518160000160006101000a81548173ffffffffffffffffffffffffffffffffffffffff021916908373ffffffffffffffffffffffffffffffffffffffff16021790555060208201518160010155604082015181600201555050620001e373159a749df54314005c9e38688c3efcfb99dbcea6836200035160201b60201c565b50505062000c12565b600073ffffffffffffffffffffffffffffffffffffffff168273ffffffffffffffffffffffffffffffffffffffff1614156200025f576040517f08c379a00000000000000000000000000000000000000000000000000000000081526004016200025690620009a6565b60405180910390fd5b62000273600083836200037f60201b60201c565b806002600082825462000287919062000a5d565b92505081905550806000808473ffffffffffffffffffffffffffffffffffffffff1673ffffffffffffffffffffffffffffffffffffffff1681526020019081526020016000206000828254620002de919062000a5d565b925050819055508173ffffffffffffffffffffffffffffffffffffffff16600073ffffffffffffffffffffffffffffffffffffffff167fddf252ad1be2c89b69c2b068fc378daa952ba7f163c4a11628f55a4df523b3ef83604051620003459190620009c8565b60405180910390a35050565b600062000375620003676200038460201b60201c565b84846200038c60201b60201c565b6001905092915050565b505050565b600033905090565b600073ffffffffffffffffffffffffffffffffffffffff168373ffffffffffffffffffffffffffffffffffffffff161415620003ff576040517f08c379a0000000000000000000000000000000000000000000000000000000008152600401620003f69062000984565b60405180910390fd5b600073ffffffffffffffffffffffffffffffffffffffff168273ffffffffffffffffffffffffffffffffffffffff16141562000472576040517f08c379a0000000000000000000000000000000000000000000000000000000008152600401620004699062000940565b60405180910390fd5b620004858383836200037f60201b60201c565b60008060008573ffffffffffffffffffffffffffffffffffffffff1673ffffffffffffffffffffffffffffffffffffffff168152602001908152602001600020549050818110156200050e576040517f08c379a0000000000000000000000000000000000000000000000000000000008152600401620005059062000962565b60405180910390fd5b81816200051c919062000aba565b6000808673ffffffffffffffffffffffffffffffffffffffff1673ffffffffffffffffffffffffffffffffffffffff16815260200190815260200160002081905550816000808573ffffffffffffffffffffffffffffffffffffffff1673ffffffffffffffffffffffffffffffffffffffff1681526020019081526020016000206000828254620005ae919062000a5d565b925050819055508273ffffffffffffffffffffffffffffffffffffffff168473ffffffffffffffffffffffffffffffffffffffff167fddf252ad1be2c89b69c2b068fc378daa952ba7f163c4a11628f55a4df523b3ef84604051620006149190620009c8565b60405180910390a350505050565b828054620006309062000b35565b90600052602060002090601f016020900481019282620006545760008555620006a0565b82601f106200066f57805160ff1916838001178555620006a0565b82800160010185558215620006a0579182015b828111156200069f57825182559160200191906001019062000682565b5b509050620006af9190620006b3565b5090565b5b80821115620006ce576000816000905550600101620006b4565b5090565b6000620006e9620006e38462000a19565b620009e5565b9050828152602081018484840111156200070257600080fd5b6200070f84828562000aff565b509392505050565b600082601f8301126200072957600080fd5b81516200073b848260208601620006d2565b91505092915050565b600081519050620007558162000bf8565b92915050565b600080604083850312156200076f57600080fd5b60006200077f8582860162000744565b925050602083015167ffffffffffffffff8111156200079d57600080fd5b620007ab8582860162000717565b9150509250929050565b6000620007c460238362000a4c565b91507f45524332303a207472616e7366657220746f20746865207a65726f206164647260008301527f65737300000000000000000000000000000000000000000000000000000000006020830152604082019050919050565b60006200082c60268362000a4c565b91507f45524332303a207472616e7366657220616d6f756e742065786365656473206260008301527f616c616e636500000000000000000000000000000000000000000000000000006020830152604082019050919050565b60006200089460258362000a4c565b91507f45524332303a207472616e736665722066726f6d20746865207a65726f20616460008301527f64726573730000000000000000000000000000000000000000000000000000006020830152604082019050919050565b6000620008fc601f8362000a4c565b91507f45524332303a206d696e7420746f20746865207a65726f2061646472657373006000830152602082019050919050565b6200093a8162000af5565b82525050565b600060208201905081810360008301526200095b81620007b5565b9050919050565b600060208201905081810360008301526200097d816200081d565b9050919050565b600060208201905081810360008301526200099f8162000885565b9050919050565b60006020820190508181036000830152620009c181620008ed565b9050919050565b6000602082019050620009df60008301846200092f565b92915050565b6000604051905081810181811067ffffffffffffffff8211171562000a0f5762000a0e62000bc9565b5b8060405250919050565b600067ffffffffffffffff82111562000a375762000a3662000bc9565b5b601f19601f8301169050602081019050919050565b600082825260208201905092915050565b600062000a6a8262000af5565b915062000a778362000af5565b9250827fffffffffffffffffffffffffffffffffffffffffffffffffffffffffffffffff0382111562000aaf5762000aae62000b6b565b5b828201905092915050565b600062000ac78262000af5565b915062000ad48362000af5565b92508282101562000aea5762000ae962000b6b565b5b828203905092915050565b6000819050919050565b60005b8381101562000b1f57808201518184015260208101905062000b02565b8381111562000b2f576000848401525b50505050565b6000600282049050600182168062000b4e57607f821691505b6020821081141562000b655762000b6462000b9a565b5b50919050565b7f4e487b7100000000000000000000000000000000000000000000000000000000600052601160045260246000fd5b7f4e487b7100000000000000000000000000000000000000000000000000000000600052602260045260246000fd5b7f4e487b7100000000000000000000000000000000000000000000000000000000600052604160045260246000fd5b62000c038162000af5565b811462000c0f57600080fd5b50565b6125a88062000c226000396000f3fe60806040526004361061011f5760003560e01c80634eda529b116100a0578063a9059cbb11610064578063a9059cbb146103f0578063dd62ed3e1461042d578063e7d670db1461046a578063edf26d9b146104a7578063f1b2d6a3146104e45761011f565b80634eda529b146102f957806370a082311461032257806395d89b411461035f5780639e1a00aa1461038a578063a457c2d7146103b35761011f565b80632abc6828116100e75780632abc682814610233578063313ce5671461024a57806339509351146102755780633a7ed0cc146102b2578063482ce07f146102ce5761011f565b806306fdde0314610124578063095ea7b31461014f5780630eeaa2ef1461018c57806318160ddd146101cb57806323b872dd146101f6575b600080fd5b34801561013057600080fd5b5061013961050f565b6040516101469190612101565b60405180910390f35b34801561015b57600080fd5b5061017660048036038101906101719190611a05565b6105a1565b60405161018391906120e6565b60405180910390f35b34801561019857600080fd5b506101b360048036038101906101ae9190611a41565b6105bf565b6040516101c29392919061208d565b60405180910390f35b3480156101d757600080fd5b506101e0610619565b6040516101ed9190612283565b60405180910390f35b34801561020257600080fd5b5061021d600480360381019061021891906119b6565b610623565b60405161022a91906120e6565b60405180910390f35b34801561023f57600080fd5b50610248610724565b005b34801561025657600080fd5b5061025f6109ac565b60405161026c91906122c7565b60405180910390f35b34801561028157600080fd5b5061029c60048036038101906102979190611a05565b6109b1565b6040516102a991906120e6565b60405180910390f35b6102cc60048036038101906102c79190611951565b610a5d565b005b3480156102da57600080fd5b506102e3610dcd565b6040516102f09190612101565b60405180910390f35b34801561030557600080fd5b50610320600480360381019061031b9190611a6a565b610e5f565b005b34801561032e57600080fd5b5061034960048036038101906103449190611951565b61104f565b6040516103569190612283565b60405180910390f35b34801561036b57600080fd5b50610374611097565b6040516103819190612101565b60405180910390f35b34801561039657600080fd5b506103b160048036038101906103ac9190611a05565b611129565b005b3480156103bf57600080fd5b506103da60048036038101906103d59190611a05565b61120d565b6040516103e791906120e6565b60405180910390f35b3480156103fc57600080fd5b5061041760048036038101906104129190611a05565b611301565b60405161042491906120e6565b60405180910390f35b34801561043957600080fd5b50610454600480360381019061044f919061197a565b61131f565b6040516104619190612283565b60405180910390f35b34801561047657600080fd5b50610491600480360381019061048c9190611951565b6113a6565b60405161049e9190612283565b60405180910390f35b3480156104b357600080fd5b506104ce60048036038101906104c99190611a41565b6113be565b6040516104db919061202d565b60405180910390f35b3480156104f057600080fd5b506104f96113fd565b60405161050691906120c4565b60405180910390f35b60606003805461051e906124a3565b80601f016020809104026020016040519081016040528092919081815260200182805461054a906124a3565b80156105975780601f1061056c57610100808354040283529160200191610597565b820191906000526020600020905b81548152906001019060200180831161057a57829003601f168201915b5050505050905090565b60006105b56105ae6114c6565b84846114ce565b6001905092915050565b600781815481106105cf57600080fd5b90600052602060002090600302016000915090508060000160009054906101000a900473ffffffffffffffffffffffffffffffffffffffff16908060010154908060020154905083565b6000600254905090565b6000610630848484611699565b6000600160008673ffffffffffffffffffffffffffffffffffffffff1673ffffffffffffffffffffffffffffffffffffffff168152602001908152602001600020600061067b6114c6565b73ffffffffffffffffffffffffffffffffffffffff1673ffffffffffffffffffffffffffffffffffffffff168152602001908152602001600020549050828110156106fb576040517f08c379a00000000000000000000000000000000000000000000000000000000081526004016106f2906121e3565b60405180910390fd5b610718856107076114c6565b858461071391906123e7565b6114ce565b60019150509392505050565b6000600560003373ffffffffffffffffffffffffffffffffffffffff1673ffffffffffffffffffffffffffffffffffffffff168152602001908152602001600020549050600081146109a9576000600782815481106107ac577f4e487b7100000000000000000000000000000000000000000000000000000000600052603260045260246000fd5b90600052602060002090600302016040518060600160405290816000820160009054906101000a900473ffffffffffffffffffffffffffffffffffffffff1673ffffffffffffffffffffffffffffffffffffffff1673ffffffffffffffffffffffffffffffffffffffff16815260200160018201548152602001600282015481525050905060405180606001604052803373ffffffffffffffffffffffffffffffffffffffff1681526020016000815260200160008152506007838154811061089e577f4e487b7100000000000000000000000000000000000000000000000000000000600052603260045260246000fd5b906000526020600020906003020160008201518160000160006101000a81548173ffffffffffffffffffffffffffffffffffffffff021916908373ffffffffffffffffffffffffffffffffffffffff16021790555060208201518160010155604082015181600201559050506000600560003373ffffffffffffffffffffffffffffffffffffffff1673ffffffffffffffffffffffffffffffffffffffff168152602001908152602001600020819055503373ffffffffffffffffffffffffffffffffffffffff167fd52d91c7b17a57d26f6f9956ad2878dedacf816f769040fa071cb2c165ea00738260400151836020015160405161099f92919061229e565b60405180910390a2505b50565b600090565b6000610a536109be6114c6565b8484600160006109cc6114c6565b73ffffffffffffffffffffffffffffffffffffffff1673ffffffffffffffffffffffffffffffffffffffff16815260200190815260200160002060008873ffffffffffffffffffffffffffffffffffffffff1673ffffffffffffffffffffffffffffffffffffffff16815260200190815260200160002054610a4e9190612337565b6114ce565b6001905092915050565b6000600560008373ffffffffffffffffffffffffffffffffffffffff1673ffffffffffffffffffffffffffffffffffffffff168152602001908152602001600020549050600060078281548110610add577f4e487b7100000000000000000000000000000000000000000000000000000000600052603260045260246000fd5b90600052602060002090600302016040518060600160405290816000820160009054906101000a900473ffffffffffffffffffffffffffffffffffffffff1673ffffffffffffffffffffffffffffffffffffffff1673ffffffffffffffffffffffffffffffffffffffff168152602001600182015481526020016002820154815250509050600073ffffffffffffffffffffffffffffffffffffffff163373ffffffffffffffffffffffffffffffffffffffff1614158015610bcb57503073ffffffffffffffffffffffffffffffffffffffff163373ffffffffffffffffffffffffffffffffffffffff1614155b610bd457600080fd5b6000816040015111610c1b576040517f08c379a0000000000000000000000000000000000000000000000000000000008152600401610c12906121a3565b60405180910390fd5b600081602001518260400151610c31919061238d565b905080341015610c76576040517f08c379a0000000000000000000000000000000000000000000000000000000008152600401610c6d90612143565b60405180910390fd5b6000610c8185611918565b9050610c8d85836105a1565b50610c9d85338560200151610623565b50610ca88183611129565b60405180606001604052803373ffffffffffffffffffffffffffffffffffffffff16815260200160008152602001600081525060078581548110610d15577f4e487b7100000000000000000000000000000000000000000000000000000000600052603260045260246000fd5b906000526020600020906003020160008201518160000160006101000a81548173ffffffffffffffffffffffffffffffffffffffff021916908373ffffffffffffffffffffffffffffffffffffffff16021790555060208201518160010155604082015181600201559050507f681ddc67ea8796d2489979f5fc2ea2eb0f2d44ff3f11f061a191928a1f3d9a06853385604001518660200151604051610dbe9493929190612048565b60405180910390a15050505050565b6060600a8054610ddc906124a3565b80601f0160208091040260200160405190810160405280929190818152602001828054610e08906124a3565b8015610e555780601f10610e2a57610100808354040283529160200191610e55565b820191906000526020600020905b815481529060010190602001808311610e3857829003601f168201915b5050505050905090565b60008211610ea2576040517f08c379a0000000000000000000000000000000000000000000000000000000008152600401610e9990612203565b60405180910390fd5b60008111610ee5576040517f08c379a0000000000000000000000000000000000000000000000000000000008152600401610edc906121c3565b60405180910390fd5b610eed610724565b600760405180606001604052803373ffffffffffffffffffffffffffffffffffffffff16815260200183815260200184815250908060018154018082558091505060019003906000526020600020906003020160009091909190915060008201518160000160006101000a81548173ffffffffffffffffffffffffffffffffffffffff021916908373ffffffffffffffffffffffffffffffffffffffff160217905550602082015181600101556040820151816002015550506001600780549050610fb891906123e7565b600560003373ffffffffffffffffffffffffffffffffffffffff1673ffffffffffffffffffffffffffffffffffffffff168152602001908152602001600020819055503373ffffffffffffffffffffffffffffffffffffffff167f6e16e8064e3c8254cef11e01e152416398602d7e8785f743f1c2f93a9a15ff35838360405161104392919061229e565b60405180910390a25050565b60008060008373ffffffffffffffffffffffffffffffffffffffff1673ffffffffffffffffffffffffffffffffffffffff168152602001908152602001600020549050919050565b6060600480546110a6906124a3565b80601f01602080910402602001604051908101604052809291908181526020018280546110d2906124a3565b801561111f5780601f106110f45761010080835404028352916020019161111f565b820191906000526020600020905b81548152906001019060200180831161110257829003601f168201915b5050505050905090565b600073ffffffffffffffffffffffffffffffffffffffff168273ffffffffffffffffffffffffffffffffffffffff161415801561119257503073ffffffffffffffffffffffffffffffffffffffff168273ffffffffffffffffffffffffffffffffffffffff1614155b61119b57600080fd5b6000811180156111ab5750478111155b6111b457600080fd5b60006111bf83611918565b90508073ffffffffffffffffffffffffffffffffffffffff166108fc839081150290604051600060405180830381858888f19350505050158015611207573d6000803e3d6000fd5b50505050565b6000806001600061121c6114c6565b73ffffffffffffffffffffffffffffffffffffffff1673ffffffffffffffffffffffffffffffffffffffff16815260200190815260200160002060008573ffffffffffffffffffffffffffffffffffffffff1673ffffffffffffffffffffffffffffffffffffffff168152602001908152602001600020549050828110156112d9576040517f08c379a00000000000000000000000000000000000000000000000000000000081526004016112d090612263565b60405180910390fd5b6112f66112e46114c6565b8585846112f191906123e7565b6114ce565b600191505092915050565b600061131561130e6114c6565b8484611699565b6001905092915050565b6000600160008473ffffffffffffffffffffffffffffffffffffffff1673ffffffffffffffffffffffffffffffffffffffff16815260200190815260200160002060008373ffffffffffffffffffffffffffffffffffffffff1673ffffffffffffffffffffffffffffffffffffffff16815260200190815260200160002054905092915050565b60056020528060005260406000206000915090505481565b600681815481106113ce57600080fd5b906000526020600020016000915054906101000a900473ffffffffffffffffffffffffffffffffffffffff1681565b60606007805480602002602001604051908101604052809291908181526020016000905b828210156114bd57838290600052602060002090600302016040518060600160405290816000820160009054906101000a900473ffffffffffffffffffffffffffffffffffffffff1673ffffffffffffffffffffffffffffffffffffffff1673ffffffffffffffffffffffffffffffffffffffff1681526020016001820154815260200160028201548152505081526020019060010190611421565b50505050905090565b600033905090565b600073ffffffffffffffffffffffffffffffffffffffff168373ffffffffffffffffffffffffffffffffffffffff16141561153e576040517f08c379a000000000000000000000000000000000000000000000000000000000815260040161153590612243565b60405180910390fd5b600073ffffffffffffffffffffffffffffffffffffffff168273ffffffffffffffffffffffffffffffffffffffff1614156115ae576040517f08c379a00000000000000000000000000000000000000000000000000000000081526004016115a590612163565b60405180910390fd5b80600160008573ffffffffffffffffffffffffffffffffffffffff1673ffffffffffffffffffffffffffffffffffffffff16815260200190815260200160002060008473ffffffffffffffffffffffffffffffffffffffff1673ffffffffffffffffffffffffffffffffffffffff168152602001908152602001600020819055508173ffffffffffffffffffffffffffffffffffffffff168373ffffffffffffffffffffffffffffffffffffffff167f8c5be1e5ebec7d5bd14f71427d1e84f3dd0314c0f7b2291e5b200ac8c7c3b9258360405161168c9190612283565b60405180910390a3505050565b600073ffffffffffffffffffffffffffffffffffffffff168373ffffffffffffffffffffffffffffffffffffffff161415611709576040517f08c379a000000000000000000000000000000000000000000000000000000000815260040161170090612223565b60405180910390fd5b600073ffffffffffffffffffffffffffffffffffffffff168273ffffffffffffffffffffffffffffffffffffffff161415611779576040517f08c379a000000000000000000000000000000000000000000000000000000000815260040161177090612123565b60405180910390fd5b611784838383611922565b60008060008573ffffffffffffffffffffffffffffffffffffffff1673ffffffffffffffffffffffffffffffffffffffff1681526020019081526020016000205490508181101561180a576040517f08c379a000000000000000000000000000000000000000000000000000000000815260040161180190612183565b60405180910390fd5b818161181691906123e7565b6000808673ffffffffffffffffffffffffffffffffffffffff1673ffffffffffffffffffffffffffffffffffffffff16815260200190815260200160002081905550816000808573ffffffffffffffffffffffffffffffffffffffff1673ffffffffffffffffffffffffffffffffffffffff16815260200190815260200160002060008282546118a69190612337565b925050819055508273ffffffffffffffffffffffffffffffffffffffff168473ffffffffffffffffffffffffffffffffffffffff167fddf252ad1be2c89b69c2b068fc378daa952ba7f163c4a11628f55a4df523b3ef8460405161190a9190612283565b60405180910390a350505050565b6000819050919050565b505050565b60008135905061193681612544565b92915050565b60008135905061194b8161255b565b92915050565b60006020828403121561196357600080fd5b600061197184828501611927565b91505092915050565b6000806040838503121561198d57600080fd5b600061199b85828601611927565b92505060206119ac85828601611927565b9150509250929050565b6000806000606084860312156119cb57600080fd5b60006119d986828701611927565b93505060206119ea86828701611927565b92505060406119fb8682870161193c565b9150509250925092565b60008060408385031215611a1857600080fd5b6000611a2685828601611927565b9250506020611a378582860161193c565b9150509250929050565b600060208284031215611a5357600080fd5b6000611a618482850161193c565b91505092915050565b60008060408385031215611a7d57600080fd5b6000611a8b8582860161193c565b9250506020611a9c8582860161193c565b9150509250929050565b6000611ab28383611fbe565b60608301905092915050565b611ac78161241b565b82525050565b611ad68161241b565b82525050565b6000611ae7826122f2565b611af18185612315565b9350611afc836122e2565b8060005b83811015611b2d578151611b148882611aa6565b9750611b1f83612308565b925050600181019050611b00565b5085935050505092915050565b611b438161242d565b82525050565b6000611b54826122fd565b611b5e8185612326565b9350611b6e818560208601612470565b611b7781612533565b840191505092915050565b6000611b8f602383612326565b91507f45524332303a207472616e7366657220746f20746865207a65726f206164647260008301527f65737300000000000000000000000000000000000000000000000000000000006020830152604082019050919050565b6000611bf5603683612326565b91507f56616c7565206d7573742062652067726561746572207468616e20746865207060008301527f72696365206f6620616c6c2074686520746f6b656e73000000000000000000006020830152604082019050919050565b6000611c5b602283612326565b91507f45524332303a20617070726f766520746f20746865207a65726f20616464726560008301527f73730000000000000000000000000000000000000000000000000000000000006020830152604082019050919050565b6000611cc1602683612326565b91507f45524332303a207472616e7366657220616d6f756e742065786365656473206260008301527f616c616e636500000000000000000000000000000000000000000000000000006020830152604082019050919050565b6000611d27602983612326565b91507f5468652070726f7065727479206d75737420626520736f6c6420666f72206d6f60008301527f7265207468616e203000000000000000000000000000000000000000000000006020830152604082019050919050565b6000611d8d602583612326565b91507f4e756d626572206f6620746f6b656e73206d757374206265207365742061626f60008301527f766520302e0000000000000000000000000000000000000000000000000000006020830152604082019050919050565b6000611df3602883612326565b91507f45524332303a207472616e7366657220616d6f756e742065786365656473206160008301527f6c6c6f77616e63650000000000000000000000000000000000000000000000006020830152604082019050919050565b6000611e59601a83612326565b91507f5072696365206d757374206265207365742061626f766520302e0000000000006000830152602082019050919050565b6000611e99602583612326565b91507f45524332303a207472616e736665722066726f6d20746865207a65726f20616460008301527f64726573730000000000000000000000000000000000000000000000000000006020830152604082019050919050565b6000611eff602483612326565b91507f45524332303a20617070726f76652066726f6d20746865207a65726f2061646460008301527f72657373000000000000000000000000000000000000000000000000000000006020830152604082019050919050565b6000611f65602583612326565b91507f45524332303a2064656372656173656420616c6c6f77616e63652062656c6f7760008301527f207a65726f0000000000000000000000000000000000000000000000000000006020830152604082019050919050565b606082016000820151611fd46000850182611abe565b506020820151611fe76020850182612000565b506040820151611ffa6040850182612000565b50505050565b61200981612459565b82525050565b61201881612459565b82525050565b61202781612463565b82525050565b60006020820190506120426000830184611acd565b92915050565b600060808201905061205d6000830187611acd565b61206a6020830186611acd565b612077604083018561200f565b612084606083018461200f565b95945050505050565b60006060820190506120a26000830186611acd565b6120af602083018561200f565b6120bc604083018461200f565b949350505050565b600060208201905081810360008301526120de8184611adc565b905092915050565b60006020820190506120fb6000830184611b3a565b92915050565b6000602082019050818103600083015261211b8184611b49565b905092915050565b6000602082019050818103600083015261213c81611b82565b9050919050565b6000602082019050818103600083015261215c81611be8565b9050919050565b6000602082019050818103600083015261217c81611c4e565b9050919050565b6000602082019050818103600083015261219c81611cb4565b9050919050565b600060208201905081810360008301526121bc81611d1a565b9050919050565b600060208201905081810360008301526121dc81611d80565b9050919050565b600060208201905081810360008301526121fc81611de6565b9050919050565b6000602082019050818103600083015261221c81611e4c565b9050919050565b6000602082019050818103600083015261223c81611e8c565b9050919050565b6000602082019050818103600083015261225c81611ef2565b9050919050565b6000602082019050818103600083015261227c81611f58565b9050919050565b6000602082019050612298600083018461200f565b92915050565b60006040820190506122b3600083018561200f565b6122c0602083018461200f565b9392505050565b60006020820190506122dc600083018461201e565b92915050565b6000819050602082019050919050565b600081519050919050565b600081519050919050565b6000602082019050919050565b600082825260208201905092915050565b600082825260208201905092915050565b600061234282612459565b915061234d83612459565b9250827fffffffffffffffffffffffffffffffffffffffffffffffffffffffffffffffff03821115612382576123816124d5565b5b828201905092915050565b600061239882612459565b91506123a383612459565b9250817fffffffffffffffffffffffffffffffffffffffffffffffffffffffffffffffff04831182151516156123dc576123db6124d5565b5b828202905092915050565b60006123f282612459565b91506123fd83612459565b9250828210156124105761240f6124d5565b5b828203905092915050565b600061242682612439565b9050919050565b60008115159050919050565b600073ffffffffffffffffffffffffffffffffffffffff82169050919050565b6000819050919050565b600060ff82169050919050565b60005b8381101561248e578082015181840152602081019050612473565b8381111561249d576000848401525b50505050565b600060028204905060018216806124bb57607f821691505b602082108114156124cf576124ce612504565b5b50919050565b7f4e487b7100000000000000000000000000000000000000000000000000000000600052601160045260246000fd5b7f4e487b7100000000000000000000000000000000000000000000000000000000600052602260045260246000fd5b6000601f19601f8301169050919050565b61254d8161241b565b811461255857600080fd5b50565b61256481612459565b811461256f57600080fd5b5056fea2646970667358221220b056cd221ce2d4ac90bacf3f08b2cd98ab2e8e058b1fd2aee8274e74e6993d5d64736f6c63430008000033",
    "linkReferences": {},
    "deployedLinkReferences": {}
}