{
    "contractName": "Storage",
    "abi": [
        {
            "constant": false,
            "inputs": [
                {
                    "internalType": "uint256",
                    "name": "num",
                    "type": "uint256"
                }
            ],
            "name": "store",
            "outputs": [],
            "payable": false,
            "stateMutability": "nonpayable",
            "type": "function"
        },
        {
            "constant": true,
            "inputs": [],
            "name": "retrieve",
            "outputs": [
                {
                    "internalType": "uint256",
                    "name": "",
                    "type": "uint256"
                }
            ],
            "payable": false,
            "stateMutability": "view",
            "type": "function"
        }
    ],
    "bytecode": "0x608060405234801561001057600080fd5b5060c68061001f6000396000f3fe6080604052348015600f57600080fd5b506004361060325760003560e01c80632e64cec11460375780636057361d146053575b600080fd5b603d607e565b6040518082815260200191505060405180910390f35b607c60048036036020811015606757600080fd5b81019080803590602001909291905050506087565b005b60008054905090565b806000819055505056fea265627a7a72315820dc27c90dc077b5e0a9a54d089d9886e5ac46876ae754091cfa5e997dd4292a7364736f6c63430005100032",
    "source": "// SPDX-License-Identifier: MIT\r\npragma solidity >=0.4.22 <0.8.0;\r\n\r\n/**\r\n * @title Storage\r\n * @dev Store & retrieve value in a variable\r\n */\r\ncontract Storage {\r\n\r\n    uint256 number;\r\n\r\n    /**\r\n     * @dev Store value in variable\r\n     * @param num value to store\r\n     */\r\n    function store(uint256 num) public {\r\n        number = num;\r\n    }\r\n\r\n    /**\r\n     * @dev Return value \r\n     * @return value of 'number'\r\n     */\r\n    function retrieve() public view returns (uint256){\r\n        return number;\r\n    }\r\n}",
    "sourcePath": "C:/Users/Jason/Documents/Blockchain/realium/contracts/Storage.sol",
    "compiler": {
        "name": "solc",
        "version": "0.5.16+commit.9c3226ce.Emscripten.clang"
    },
    "schemaVersion": "3.3.4",
    "updatedAt": "2021-02-23T23:59:42.836Z",
    "networkType": "ethereum",
    "devdoc": {
        "details": "Store & retrieve value in a variable",
        "methods": {
            "retrieve()": {
                "details": "Return value ",
                "return": "value of 'number'"
            },
            "store(uint256)": {
                "details": "Store value in variable",
                "params": {
                    "num": "value to store"
                }
            }
        },
        "title": "Storage"
    },
    "userdoc": {
        "methods": {}
    }
}